{
	"contracts/FundMe.sol": {
		"FundMe": {
			"abi": [
				{
					"inputs": [
						{
							"internalType": "address",
							"name": "",
							"type": "address"
						}
					],
					"name": "addressToAmountFunded",
					"outputs": [
						{
							"internalType": "uint256",
							"name": "",
							"type": "uint256"
						}
					],
					"stateMutability": "view",
					"type": "function"
				},
				{
					"inputs": [],
					"name": "fund",
					"outputs": [],
					"stateMutability": "payable",
					"type": "function"
				},
				{
					"inputs": [
						{
							"internalType": "uint256",
							"name": "ethAmount",
							"type": "uint256"
						}
					],
					"name": "getConversionRate",
					"outputs": [
						{
							"internalType": "uint256",
							"name": "",
							"type": "uint256"
						}
					],
					"stateMutability": "view",
					"type": "function"
				},
				{
					"inputs": [],
					"name": "getPrice",
					"outputs": [
						{
							"internalType": "uint256",
							"name": "",
							"type": "uint256"
						}
					],
					"stateMutability": "view",
					"type": "function"
				},
				{
					"inputs": [],
					"name": "getVersion",
					"outputs": [
						{
							"internalType": "uint256",
							"name": "",
							"type": "uint256"
						}
					],
					"stateMutability": "view",
					"type": "function"
				}
			],
			"devdoc": {
				"kind": "dev",
				"methods": {},
				"version": 1
			},
			"evm": {
				"assembly": "    /* \"contracts/FundMe.sol\":192:1559  contract FundMe {... */\n  mstore(0x40, 0x80)\n  callvalue\n  dup1\n  iszero\n  tag_1\n  jumpi\n  revert(0x00, 0x00)\ntag_1:\n  pop\n  dataSize(sub_0)\n  dup1\n  dataOffset(sub_0)\n  0x00\n  codecopy\n  0x00\n  return\nstop\n\nsub_0: assembly {\n        /* \"contracts/FundMe.sol\":192:1559  contract FundMe {... */\n      mstore(0x40, 0x80)\n      jumpi(tag_1, lt(calldatasize, 0x04))\n      shr(0xe0, calldataload(0x00))\n      dup1\n      0x0d8e6e2c\n      eq\n      tag_2\n      jumpi\n      dup1\n      0x3e47d6f3\n      eq\n      tag_3\n      jumpi\n      dup1\n      0x6e5b6b28\n      eq\n      tag_4\n      jumpi\n      dup1\n      0x98d5fdca\n      eq\n      tag_5\n      jumpi\n      dup1\n      0xb60d4288\n      eq\n      tag_6\n      jumpi\n    tag_1:\n      revert(0x00, 0x00)\n        /* \"contracts/FundMe.sol\":642:878  function getVersion() public view returns (uint256){... */\n    tag_2:\n      callvalue\n      dup1\n      iszero\n      tag_7\n      jumpi\n      revert(0x00, 0x00)\n    tag_7:\n      pop\n      tag_8\n      tag_9\n      jump\t// in\n    tag_8:\n      mload(0x40)\n      tag_10\n      swap2\n      swap1\n      tag_11\n      jump\t// in\n    tag_10:\n      mload(0x40)\n      dup1\n      swap2\n      sub\n      swap1\n      return\n        /* \"contracts/FundMe.sol\":217:273  mapping(address => uint256) public addressToAmountFunded */\n    tag_3:\n      callvalue\n      dup1\n      iszero\n      tag_12\n      jumpi\n      revert(0x00, 0x00)\n    tag_12:\n      pop\n      tag_13\n      0x04\n      dup1\n      calldatasize\n      sub\n      dup2\n      add\n      swap1\n      tag_14\n      swap2\n      swap1\n      tag_15\n      jump\t// in\n    tag_14:\n      tag_16\n      jump\t// in\n    tag_13:\n      mload(0x40)\n      tag_17\n      swap2\n      swap1\n      tag_11\n      jump\t// in\n    tag_17:\n      mload(0x40)\n      dup1\n      swap2\n      sub\n      swap1\n      return\n        /* \"contracts/FundMe.sol\":1302:1556  function getConversionRate(uint256 ethAmount) public view returns (uint256){... */\n    tag_4:\n      callvalue\n      dup1\n      iszero\n      tag_18\n      jumpi\n      revert(0x00, 0x00)\n    tag_18:\n      pop\n      tag_19\n      0x04\n      dup1\n      calldatasize\n      sub\n      dup2\n      add\n      swap1\n      tag_20\n      swap2\n      swap1\n      tag_21\n      jump\t// in\n    tag_20:\n      tag_22\n      jump\t// in\n    tag_19:\n      mload(0x40)\n      tag_23\n      swap2\n      swap1\n      tag_11\n      jump\t// in\n    tag_23:\n      mload(0x40)\n      dup1\n      swap2\n      sub\n      swap1\n      return\n        /* \"contracts/FundMe.sol\":886:1219  function getPrice() public view returns (uint256){... */\n    tag_5:\n      callvalue\n      dup1\n      iszero\n      tag_24\n      jumpi\n      revert(0x00, 0x00)\n    tag_24:\n      pop\n      tag_25\n      tag_26\n      jump\t// in\n    tag_25:\n      mload(0x40)\n      tag_27\n      swap2\n      swap1\n      tag_11\n      jump\t// in\n    tag_27:\n      mload(0x40)\n      dup1\n      swap2\n      sub\n      swap1\n      return\n        /* \"contracts/FundMe.sol\":318:634  function fund() public payable{... */\n    tag_6:\n      tag_28\n      tag_29\n      jump\t// in\n    tag_28:\n      stop\n        /* \"contracts/FundMe.sol\":642:878  function getVersion() public view returns (uint256){... */\n    tag_9:\n        /* \"contracts/FundMe.sol\":685:692  uint256 */\n      0x00\n        /* \"contracts/FundMe.sol\":704:735  AggregatorV3Interface priceFeed */\n      0x00\n        /* \"contracts/FundMe.sol\":760:802  0x694AA1769357215DE4FAC081bf1f309aDC325306 */\n      0x694aa1769357215de4fac081bf1f309adc325306\n        /* \"contracts/FundMe.sol\":704:803  AggregatorV3Interface priceFeed = AggregatorV3Interface(0x694AA1769357215DE4FAC081bf1f309aDC325306) */\n      swap1\n      pop\n        /* \"contracts/FundMe.sol\":851:860  priceFeed */\n      dup1\n        /* \"contracts/FundMe.sol\":851:868  priceFeed.version */\n      0xffffffffffffffffffffffffffffffffffffffff\n      and\n      0x54fd4d50\n        /* \"contracts/FundMe.sol\":851:870  priceFeed.version() */\n      mload(0x40)\n      dup2\n      0xffffffff\n      and\n      0xe0\n      shl\n      dup2\n      mstore\n      0x04\n      add\n      0x20\n      mload(0x40)\n      dup1\n      dup4\n      sub\n      dup2\n      dup7\n      gas\n      staticcall\n      iszero\n      dup1\n      iszero\n      tag_32\n      jumpi\n      returndatacopy(0x00, 0x00, returndatasize)\n      revert(0x00, returndatasize)\n    tag_32:\n      pop\n      pop\n      pop\n      pop\n      mload(0x40)\n      returndatasize\n      not(0x1f)\n      0x1f\n      dup3\n      add\n      and\n      dup3\n      add\n      dup1\n      0x40\n      mstore\n      pop\n      dup2\n      add\n      swap1\n      tag_33\n      swap2\n      swap1\n      tag_34\n      jump\t// in\n    tag_33:\n        /* \"contracts/FundMe.sol\":844:870  return priceFeed.version() */\n      swap2\n      pop\n      pop\n        /* \"contracts/FundMe.sol\":642:878  function getVersion() public view returns (uint256){... */\n      swap1\n      jump\t// out\n        /* \"contracts/FundMe.sol\":217:273  mapping(address => uint256) public addressToAmountFunded */\n    tag_16:\n      mstore(0x20, 0x00)\n      dup1\n      0x00\n      mstore\n      keccak256(0x00, 0x40)\n      0x00\n      swap2\n      pop\n      swap1\n      pop\n      sload\n      dup2\n      jump\t// out\n        /* \"contracts/FundMe.sol\":1302:1556  function getConversionRate(uint256 ethAmount) public view returns (uint256){... */\n    tag_22:\n        /* \"contracts/FundMe.sol\":1369:1376  uint256 */\n      0x00\n        /* \"contracts/FundMe.sol\":1388:1404  uint256 ethPrice */\n      0x00\n        /* \"contracts/FundMe.sol\":1407:1417  getPrice() */\n      tag_36\n        /* \"contracts/FundMe.sol\":1407:1415  getPrice */\n      tag_26\n        /* \"contracts/FundMe.sol\":1407:1417  getPrice() */\n      jump\t// in\n    tag_36:\n        /* \"contracts/FundMe.sol\":1388:1417  uint256 ethPrice = getPrice() */\n      swap1\n      pop\n        /* \"contracts/FundMe.sol\":1428:1450  uint256 ethAmountInUsd */\n      0x00\n        /* \"contracts/FundMe.sol\":1477:1482  10**8 */\n      0x05f5e100\n        /* \"contracts/FundMe.sol\":1463:1472  ethAmount */\n      dup5\n        /* \"contracts/FundMe.sol\":1454:1462  ethPrice */\n      dup4\n        /* \"contracts/FundMe.sol\":1454:1472  ethPrice*ethAmount */\n      tag_37\n      swap2\n      swap1\n      tag_38\n      jump\t// in\n    tag_37:\n        /* \"contracts/FundMe.sol\":1453:1483  (ethPrice*ethAmount) / (10**8) */\n      tag_39\n      swap2\n      swap1\n      tag_40\n      jump\t// in\n    tag_39:\n        /* \"contracts/FundMe.sol\":1428:1483  uint256 ethAmountInUsd = (ethPrice*ethAmount) / (10**8) */\n      swap1\n      pop\n        /* \"contracts/FundMe.sol\":1501:1515  ethAmountInUsd */\n      dup1\n        /* \"contracts/FundMe.sol\":1494:1515  return ethAmountInUsd */\n      swap3\n      pop\n      pop\n      pop\n        /* \"contracts/FundMe.sol\":1302:1556  function getConversionRate(uint256 ethAmount) public view returns (uint256){... */\n      swap2\n      swap1\n      pop\n      jump\t// out\n        /* \"contracts/FundMe.sol\":886:1219  function getPrice() public view returns (uint256){... */\n    tag_26:\n        /* \"contracts/FundMe.sol\":927:934  uint256 */\n      0x00\n        /* \"contracts/FundMe.sol\":946:977  AggregatorV3Interface priceFeed */\n      0x00\n        /* \"contracts/FundMe.sol\":1002:1044  0x694AA1769357215DE4FAC081bf1f309aDC325306 */\n      0x694aa1769357215de4fac081bf1f309adc325306\n        /* \"contracts/FundMe.sol\":946:1045  AggregatorV3Interface priceFeed = AggregatorV3Interface(0x694AA1769357215DE4FAC081bf1f309aDC325306) */\n      swap1\n      pop\n        /* \"contracts/FundMe.sol\":1058:1071  int256 answer */\n      0x00\n        /* \"contracts/FundMe.sol\":1078:1087  priceFeed */\n      dup2\n        /* \"contracts/FundMe.sol\":1078:1103  priceFeed.latestRoundData */\n      0xffffffffffffffffffffffffffffffffffffffff\n      and\n      0xfeaf968c\n        /* \"contracts/FundMe.sol\":1078:1105  priceFeed.latestRoundData() */\n      mload(0x40)\n      dup2\n      0xffffffff\n      and\n      0xe0\n      shl\n      dup2\n      mstore\n      0x04\n      add\n      0xa0\n      mload(0x40)\n      dup1\n      dup4\n      sub\n      dup2\n      dup7\n      gas\n      staticcall\n      iszero\n      dup1\n      iszero\n      tag_43\n      jumpi\n      returndatacopy(0x00, 0x00, returndatasize)\n      revert(0x00, returndatasize)\n    tag_43:\n      pop\n      pop\n      pop\n      pop\n      mload(0x40)\n      returndatasize\n      not(0x1f)\n      0x1f\n      dup3\n      add\n      and\n      dup3\n      add\n      dup1\n      0x40\n      mstore\n      pop\n      dup2\n      add\n      swap1\n      tag_44\n      swap2\n      swap1\n      tag_45\n      jump\t// in\n    tag_44:\n        /* \"contracts/FundMe.sol\":1056:1105  (,int256 answer,,,) = priceFeed.latestRoundData() */\n      pop\n      pop\n      pop\n      swap2\n      pop\n      pop\n        /* \"contracts/FundMe.sol\":1170:1176  answer */\n      dup1\n        /* \"contracts/FundMe.sol\":1155:1177  return uint256(answer) */\n      swap3\n      pop\n      pop\n      pop\n        /* \"contracts/FundMe.sol\":886:1219  function getPrice() public view returns (uint256){... */\n      swap1\n      jump\t// out\n        /* \"contracts/FundMe.sol\":318:634  function fund() public payable{... */\n    tag_29:\n        /* \"contracts/FundMe.sol\":373:391  uint256 minimumUSD */\n      0x00\n        /* \"contracts/FundMe.sol\":394:404  5*(10**18) */\n      0x4563918244f40000\n        /* \"contracts/FundMe.sol\":373:404  uint256 minimumUSD = 5*(10**18) */\n      swap1\n      pop\n        /* \"contracts/FundMe.sol\":478:488  minimumUSD */\n      dup1\n        /* \"contracts/FundMe.sol\":446:474  getConversionRate(msg.value) */\n      tag_47\n        /* \"contracts/FundMe.sol\":464:473  msg.value */\n      callvalue\n        /* \"contracts/FundMe.sol\":446:463  getConversionRate */\n      tag_22\n        /* \"contracts/FundMe.sol\":446:474  getConversionRate(msg.value) */\n      jump\t// in\n    tag_47:\n        /* \"contracts/FundMe.sol\":446:488  getConversionRate(msg.value) >= minimumUSD */\n      lt\n      iszero\n        /* \"contracts/FundMe.sol\":438:520  require(getConversionRate(msg.value) >= minimumUSD, \"You need to spend more ETH!\") */\n      tag_48\n      jumpi\n      mload(0x40)\n      0x08c379a000000000000000000000000000000000000000000000000000000000\n      dup2\n      mstore\n      0x04\n      add\n      tag_49\n      swap1\n      tag_50\n      jump\t// in\n    tag_49:\n      mload(0x40)\n      dup1\n      swap2\n      sub\n      swap1\n      revert\n    tag_48:\n        /* \"contracts/FundMe.sol\":568:577  msg.value */\n      callvalue\n        /* \"contracts/FundMe.sol\":531:552  addressToAmountFunded */\n      0x00\n        /* \"contracts/FundMe.sol\":531:564  addressToAmountFunded[msg.sender] */\n      0x00\n        /* \"contracts/FundMe.sol\":553:563  msg.sender */\n      caller\n        /* \"contracts/FundMe.sol\":531:564  addressToAmountFunded[msg.sender] */\n      0xffffffffffffffffffffffffffffffffffffffff\n      and\n      0xffffffffffffffffffffffffffffffffffffffff\n      and\n      dup2\n      mstore\n      0x20\n      add\n      swap1\n      dup2\n      mstore\n      0x20\n      add\n      0x00\n      keccak256\n      0x00\n        /* \"contracts/FundMe.sol\":531:577  addressToAmountFunded[msg.sender] += msg.value */\n      dup3\n      dup3\n      sload\n      tag_51\n      swap2\n      swap1\n      tag_52\n      jump\t// in\n    tag_51:\n      swap3\n      pop\n      pop\n      dup2\n      swap1\n      sstore\n      pop\n        /* \"contracts/FundMe.sol\":348:634  {... */\n      pop\n        /* \"contracts/FundMe.sol\":318:634  function fund() public payable{... */\n      jump\t// out\n        /* \"#utility.yul\":7:84   */\n    tag_53:\n        /* \"#utility.yul\":44:51   */\n      0x00\n        /* \"#utility.yul\":73:78   */\n      dup2\n        /* \"#utility.yul\":62:78   */\n      swap1\n      pop\n        /* \"#utility.yul\":7:84   */\n      swap2\n      swap1\n      pop\n      jump\t// out\n        /* \"#utility.yul\":90:208   */\n    tag_54:\n        /* \"#utility.yul\":177:201   */\n      tag_79\n        /* \"#utility.yul\":195:200   */\n      dup2\n        /* \"#utility.yul\":177:201   */\n      tag_53\n      jump\t// in\n    tag_79:\n        /* \"#utility.yul\":172:175   */\n      dup3\n        /* \"#utility.yul\":165:202   */\n      mstore\n        /* \"#utility.yul\":90:208   */\n      pop\n      pop\n      jump\t// out\n        /* \"#utility.yul\":214:436   */\n    tag_11:\n        /* \"#utility.yul\":307:311   */\n      0x00\n        /* \"#utility.yul\":345:347   */\n      0x20\n        /* \"#utility.yul\":334:343   */\n      dup3\n        /* \"#utility.yul\":330:348   */\n      add\n        /* \"#utility.yul\":322:348   */\n      swap1\n      pop\n        /* \"#utility.yul\":358:429   */\n      tag_81\n        /* \"#utility.yul\":426:427   */\n      0x00\n        /* \"#utility.yul\":415:424   */\n      dup4\n        /* \"#utility.yul\":411:428   */\n      add\n        /* \"#utility.yul\":402:408   */\n      dup5\n        /* \"#utility.yul\":358:429   */\n      tag_54\n      jump\t// in\n    tag_81:\n        /* \"#utility.yul\":214:436   */\n      swap3\n      swap2\n      pop\n      pop\n      jump\t// out\n        /* \"#utility.yul\":523:640   */\n    tag_56:\n        /* \"#utility.yul\":632:633   */\n      0x00\n        /* \"#utility.yul\":629:630   */\n      0x00\n        /* \"#utility.yul\":622:634   */\n      revert\n        /* \"#utility.yul\":769:895   */\n    tag_58:\n        /* \"#utility.yul\":806:813   */\n      0x00\n        /* \"#utility.yul\":846:888   */\n      0xffffffffffffffffffffffffffffffffffffffff\n        /* \"#utility.yul\":839:844   */\n      dup3\n        /* \"#utility.yul\":835:889   */\n      and\n        /* \"#utility.yul\":824:889   */\n      swap1\n      pop\n        /* \"#utility.yul\":769:895   */\n      swap2\n      swap1\n      pop\n      jump\t// out\n        /* \"#utility.yul\":901:997   */\n    tag_59:\n        /* \"#utility.yul\":938:945   */\n      0x00\n        /* \"#utility.yul\":967:991   */\n      tag_87\n        /* \"#utility.yul\":985:990   */\n      dup3\n        /* \"#utility.yul\":967:991   */\n      tag_58\n      jump\t// in\n    tag_87:\n        /* \"#utility.yul\":956:991   */\n      swap1\n      pop\n        /* \"#utility.yul\":901:997   */\n      swap2\n      swap1\n      pop\n      jump\t// out\n        /* \"#utility.yul\":1003:1125   */\n    tag_60:\n        /* \"#utility.yul\":1076:1100   */\n      tag_89\n        /* \"#utility.yul\":1094:1099   */\n      dup2\n        /* \"#utility.yul\":1076:1100   */\n      tag_59\n      jump\t// in\n    tag_89:\n        /* \"#utility.yul\":1069:1074   */\n      dup2\n        /* \"#utility.yul\":1066:1101   */\n      eq\n        /* \"#utility.yul\":1056:1119   */\n      tag_90\n      jumpi\n        /* \"#utility.yul\":1115:1116   */\n      0x00\n        /* \"#utility.yul\":1112:1113   */\n      0x00\n        /* \"#utility.yul\":1105:1117   */\n      revert\n        /* \"#utility.yul\":1056:1119   */\n    tag_90:\n        /* \"#utility.yul\":1003:1125   */\n      pop\n      jump\t// out\n        /* \"#utility.yul\":1131:1270   */\n    tag_61:\n        /* \"#utility.yul\":1177:1182   */\n      0x00\n        /* \"#utility.yul\":1215:1221   */\n      dup2\n        /* \"#utility.yul\":1202:1222   */\n      calldataload\n        /* \"#utility.yul\":1193:1222   */\n      swap1\n      pop\n        /* \"#utility.yul\":1231:1264   */\n      tag_92\n        /* \"#utility.yul\":1258:1263   */\n      dup2\n        /* \"#utility.yul\":1231:1264   */\n      tag_60\n      jump\t// in\n    tag_92:\n        /* \"#utility.yul\":1131:1270   */\n      swap3\n      swap2\n      pop\n      pop\n      jump\t// out\n        /* \"#utility.yul\":1276:1605   */\n    tag_15:\n        /* \"#utility.yul\":1335:1341   */\n      0x00\n        /* \"#utility.yul\":1384:1386   */\n      0x20\n        /* \"#utility.yul\":1372:1381   */\n      dup3\n        /* \"#utility.yul\":1363:1370   */\n      dup5\n        /* \"#utility.yul\":1359:1382   */\n      sub\n        /* \"#utility.yul\":1355:1387   */\n      slt\n        /* \"#utility.yul\":1352:1471   */\n      iszero\n      tag_94\n      jumpi\n        /* \"#utility.yul\":1390:1469   */\n      tag_95\n      tag_56\n      jump\t// in\n    tag_95:\n        /* \"#utility.yul\":1352:1471   */\n    tag_94:\n        /* \"#utility.yul\":1510:1511   */\n      0x00\n        /* \"#utility.yul\":1535:1588   */\n      tag_96\n        /* \"#utility.yul\":1580:1587   */\n      dup5\n        /* \"#utility.yul\":1571:1577   */\n      dup3\n        /* \"#utility.yul\":1560:1569   */\n      dup6\n        /* \"#utility.yul\":1556:1578   */\n      add\n        /* \"#utility.yul\":1535:1588   */\n      tag_61\n      jump\t// in\n    tag_96:\n        /* \"#utility.yul\":1525:1588   */\n      swap2\n      pop\n        /* \"#utility.yul\":1481:1598   */\n      pop\n        /* \"#utility.yul\":1276:1605   */\n      swap3\n      swap2\n      pop\n      pop\n      jump\t// out\n        /* \"#utility.yul\":1611:1733   */\n    tag_62:\n        /* \"#utility.yul\":1684:1708   */\n      tag_98\n        /* \"#utility.yul\":1702:1707   */\n      dup2\n        /* \"#utility.yul\":1684:1708   */\n      tag_53\n      jump\t// in\n    tag_98:\n        /* \"#utility.yul\":1677:1682   */\n      dup2\n        /* \"#utility.yul\":1674:1709   */\n      eq\n        /* \"#utility.yul\":1664:1727   */\n      tag_99\n      jumpi\n        /* \"#utility.yul\":1723:1724   */\n      0x00\n        /* \"#utility.yul\":1720:1721   */\n      0x00\n        /* \"#utility.yul\":1713:1725   */\n      revert\n        /* \"#utility.yul\":1664:1727   */\n    tag_99:\n        /* \"#utility.yul\":1611:1733   */\n      pop\n      jump\t// out\n        /* \"#utility.yul\":1739:1878   */\n    tag_63:\n        /* \"#utility.yul\":1785:1790   */\n      0x00\n        /* \"#utility.yul\":1823:1829   */\n      dup2\n        /* \"#utility.yul\":1810:1830   */\n      calldataload\n        /* \"#utility.yul\":1801:1830   */\n      swap1\n      pop\n        /* \"#utility.yul\":1839:1872   */\n      tag_101\n        /* \"#utility.yul\":1866:1871   */\n      dup2\n        /* \"#utility.yul\":1839:1872   */\n      tag_62\n      jump\t// in\n    tag_101:\n        /* \"#utility.yul\":1739:1878   */\n      swap3\n      swap2\n      pop\n      pop\n      jump\t// out\n        /* \"#utility.yul\":1884:2213   */\n    tag_21:\n        /* \"#utility.yul\":1943:1949   */\n      0x00\n        /* \"#utility.yul\":1992:1994   */\n      0x20\n        /* \"#utility.yul\":1980:1989   */\n      dup3\n        /* \"#utility.yul\":1971:1978   */\n      dup5\n        /* \"#utility.yul\":1967:1990   */\n      sub\n        /* \"#utility.yul\":1963:1995   */\n      slt\n        /* \"#utility.yul\":1960:2079   */\n      iszero\n      tag_103\n      jumpi\n        /* \"#utility.yul\":1998:2077   */\n      tag_104\n      tag_56\n      jump\t// in\n    tag_104:\n        /* \"#utility.yul\":1960:2079   */\n    tag_103:\n        /* \"#utility.yul\":2118:2119   */\n      0x00\n        /* \"#utility.yul\":2143:2196   */\n      tag_105\n        /* \"#utility.yul\":2188:2195   */\n      dup5\n        /* \"#utility.yul\":2179:2185   */\n      dup3\n        /* \"#utility.yul\":2168:2177   */\n      dup6\n        /* \"#utility.yul\":2164:2186   */\n      add\n        /* \"#utility.yul\":2143:2196   */\n      tag_63\n      jump\t// in\n    tag_105:\n        /* \"#utility.yul\":2133:2196   */\n      swap2\n      pop\n        /* \"#utility.yul\":2089:2206   */\n      pop\n        /* \"#utility.yul\":1884:2213   */\n      swap3\n      swap2\n      pop\n      pop\n      jump\t// out\n        /* \"#utility.yul\":2219:2362   */\n    tag_64:\n        /* \"#utility.yul\":2276:2281   */\n      0x00\n        /* \"#utility.yul\":2307:2313   */\n      dup2\n        /* \"#utility.yul\":2301:2314   */\n      mload\n        /* \"#utility.yul\":2292:2314   */\n      swap1\n      pop\n        /* \"#utility.yul\":2323:2356   */\n      tag_107\n        /* \"#utility.yul\":2350:2355   */\n      dup2\n        /* \"#utility.yul\":2323:2356   */\n      tag_62\n      jump\t// in\n    tag_107:\n        /* \"#utility.yul\":2219:2362   */\n      swap3\n      swap2\n      pop\n      pop\n      jump\t// out\n        /* \"#utility.yul\":2368:2719   */\n    tag_34:\n        /* \"#utility.yul\":2438:2444   */\n      0x00\n        /* \"#utility.yul\":2487:2489   */\n      0x20\n        /* \"#utility.yul\":2475:2484   */\n      dup3\n        /* \"#utility.yul\":2466:2473   */\n      dup5\n        /* \"#utility.yul\":2462:2485   */\n      sub\n        /* \"#utility.yul\":2458:2490   */\n      slt\n        /* \"#utility.yul\":2455:2574   */\n      iszero\n      tag_109\n      jumpi\n        /* \"#utility.yul\":2493:2572   */\n      tag_110\n      tag_56\n      jump\t// in\n    tag_110:\n        /* \"#utility.yul\":2455:2574   */\n    tag_109:\n        /* \"#utility.yul\":2613:2614   */\n      0x00\n        /* \"#utility.yul\":2638:2702   */\n      tag_111\n        /* \"#utility.yul\":2694:2701   */\n      dup5\n        /* \"#utility.yul\":2685:2691   */\n      dup3\n        /* \"#utility.yul\":2674:2683   */\n      dup6\n        /* \"#utility.yul\":2670:2692   */\n      add\n        /* \"#utility.yul\":2638:2702   */\n      tag_64\n      jump\t// in\n    tag_111:\n        /* \"#utility.yul\":2628:2702   */\n      swap2\n      pop\n        /* \"#utility.yul\":2584:2712   */\n      pop\n        /* \"#utility.yul\":2368:2719   */\n      swap3\n      swap2\n      pop\n      pop\n      jump\t// out\n        /* \"#utility.yul\":2725:2905   */\n    tag_65:\n        /* \"#utility.yul\":2773:2850   */\n      0x4e487b7100000000000000000000000000000000000000000000000000000000\n        /* \"#utility.yul\":2770:2771   */\n      0x00\n        /* \"#utility.yul\":2763:2851   */\n      mstore\n        /* \"#utility.yul\":2870:2874   */\n      0x11\n        /* \"#utility.yul\":2867:2868   */\n      0x04\n        /* \"#utility.yul\":2860:2875   */\n      mstore\n        /* \"#utility.yul\":2894:2898   */\n      0x24\n        /* \"#utility.yul\":2891:2892   */\n      0x00\n        /* \"#utility.yul\":2884:2899   */\n      revert\n        /* \"#utility.yul\":2911:3321   */\n    tag_38:\n        /* \"#utility.yul\":2951:2958   */\n      0x00\n        /* \"#utility.yul\":2974:2994   */\n      tag_114\n        /* \"#utility.yul\":2992:2993   */\n      dup3\n        /* \"#utility.yul\":2974:2994   */\n      tag_53\n      jump\t// in\n    tag_114:\n        /* \"#utility.yul\":2969:2994   */\n      swap2\n      pop\n        /* \"#utility.yul\":3008:3028   */\n      tag_115\n        /* \"#utility.yul\":3026:3027   */\n      dup4\n        /* \"#utility.yul\":3008:3028   */\n      tag_53\n      jump\t// in\n    tag_115:\n        /* \"#utility.yul\":3003:3028   */\n      swap3\n      pop\n        /* \"#utility.yul\":3063:3064   */\n      dup3\n        /* \"#utility.yul\":3060:3061   */\n      dup3\n        /* \"#utility.yul\":3056:3065   */\n      mul\n        /* \"#utility.yul\":3085:3115   */\n      tag_116\n        /* \"#utility.yul\":3103:3114   */\n      dup2\n        /* \"#utility.yul\":3085:3115   */\n      tag_53\n      jump\t// in\n    tag_116:\n        /* \"#utility.yul\":3074:3115   */\n      swap2\n      pop\n        /* \"#utility.yul\":3264:3265   */\n      dup3\n        /* \"#utility.yul\":3255:3262   */\n      dup3\n        /* \"#utility.yul\":3251:3266   */\n      div\n        /* \"#utility.yul\":3248:3249   */\n      dup5\n        /* \"#utility.yul\":3245:3267   */\n      eq\n        /* \"#utility.yul\":3225:3226   */\n      dup4\n        /* \"#utility.yul\":3218:3227   */\n      iszero\n        /* \"#utility.yul\":3198:3281   */\n      or\n        /* \"#utility.yul\":3175:3314   */\n      tag_117\n      jumpi\n        /* \"#utility.yul\":3294:3312   */\n      tag_118\n      tag_65\n      jump\t// in\n    tag_118:\n        /* \"#utility.yul\":3175:3314   */\n    tag_117:\n        /* \"#utility.yul\":2959:3321   */\n      pop\n        /* \"#utility.yul\":2911:3321   */\n      swap3\n      swap2\n      pop\n      pop\n      jump\t// out\n        /* \"#utility.yul\":3327:3507   */\n    tag_66:\n        /* \"#utility.yul\":3375:3452   */\n      0x4e487b7100000000000000000000000000000000000000000000000000000000\n        /* \"#utility.yul\":3372:3373   */\n      0x00\n        /* \"#utility.yul\":3365:3453   */\n      mstore\n        /* \"#utility.yul\":3472:3476   */\n      0x12\n        /* \"#utility.yul\":3469:3470   */\n      0x04\n        /* \"#utility.yul\":3462:3477   */\n      mstore\n        /* \"#utility.yul\":3496:3500   */\n      0x24\n        /* \"#utility.yul\":3493:3494   */\n      0x00\n        /* \"#utility.yul\":3486:3501   */\n      revert\n        /* \"#utility.yul\":3513:3698   */\n    tag_40:\n        /* \"#utility.yul\":3553:3554   */\n      0x00\n        /* \"#utility.yul\":3570:3590   */\n      tag_121\n        /* \"#utility.yul\":3588:3589   */\n      dup3\n        /* \"#utility.yul\":3570:3590   */\n      tag_53\n      jump\t// in\n    tag_121:\n        /* \"#utility.yul\":3565:3590   */\n      swap2\n      pop\n        /* \"#utility.yul\":3604:3624   */\n      tag_122\n        /* \"#utility.yul\":3622:3623   */\n      dup4\n        /* \"#utility.yul\":3604:3624   */\n      tag_53\n      jump\t// in\n    tag_122:\n        /* \"#utility.yul\":3599:3624   */\n      swap3\n      pop\n        /* \"#utility.yul\":3643:3644   */\n      dup3\n        /* \"#utility.yul\":3633:3668   */\n      tag_123\n      jumpi\n        /* \"#utility.yul\":3648:3666   */\n      tag_124\n      tag_66\n      jump\t// in\n    tag_124:\n        /* \"#utility.yul\":3633:3668   */\n    tag_123:\n        /* \"#utility.yul\":3690:3691   */\n      dup3\n        /* \"#utility.yul\":3687:3688   */\n      dup3\n        /* \"#utility.yul\":3683:3692   */\n      div\n        /* \"#utility.yul\":3678:3692   */\n      swap1\n      pop\n        /* \"#utility.yul\":3513:3698   */\n      swap3\n      swap2\n      pop\n      pop\n      jump\t// out\n        /* \"#utility.yul\":3704:3809   */\n    tag_67:\n        /* \"#utility.yul\":3740:3747   */\n      0x00\n        /* \"#utility.yul\":3780:3802   */\n      0xffffffffffffffffffff\n        /* \"#utility.yul\":3773:3778   */\n      dup3\n        /* \"#utility.yul\":3769:3803   */\n      and\n        /* \"#utility.yul\":3758:3803   */\n      swap1\n      pop\n        /* \"#utility.yul\":3704:3809   */\n      swap2\n      swap1\n      pop\n      jump\t// out\n        /* \"#utility.yul\":3815:3935   */\n    tag_68:\n        /* \"#utility.yul\":3887:3910   */\n      tag_127\n        /* \"#utility.yul\":3904:3909   */\n      dup2\n        /* \"#utility.yul\":3887:3910   */\n      tag_67\n      jump\t// in\n    tag_127:\n        /* \"#utility.yul\":3880:3885   */\n      dup2\n        /* \"#utility.yul\":3877:3911   */\n      eq\n        /* \"#utility.yul\":3867:3929   */\n      tag_128\n      jumpi\n        /* \"#utility.yul\":3925:3926   */\n      0x00\n        /* \"#utility.yul\":3922:3923   */\n      0x00\n        /* \"#utility.yul\":3915:3927   */\n      revert\n        /* \"#utility.yul\":3867:3929   */\n    tag_128:\n        /* \"#utility.yul\":3815:3935   */\n      pop\n      jump\t// out\n        /* \"#utility.yul\":3941:4082   */\n    tag_69:\n        /* \"#utility.yul\":3997:4002   */\n      0x00\n        /* \"#utility.yul\":4028:4034   */\n      dup2\n        /* \"#utility.yul\":4022:4035   */\n      mload\n        /* \"#utility.yul\":4013:4035   */\n      swap1\n      pop\n        /* \"#utility.yul\":4044:4076   */\n      tag_130\n        /* \"#utility.yul\":4070:4075   */\n      dup2\n        /* \"#utility.yul\":4044:4076   */\n      tag_68\n      jump\t// in\n    tag_130:\n        /* \"#utility.yul\":3941:4082   */\n      swap3\n      swap2\n      pop\n      pop\n      jump\t// out\n        /* \"#utility.yul\":4088:4164   */\n    tag_70:\n        /* \"#utility.yul\":4124:4131   */\n      0x00\n        /* \"#utility.yul\":4153:4158   */\n      dup2\n        /* \"#utility.yul\":4142:4158   */\n      swap1\n      pop\n        /* \"#utility.yul\":4088:4164   */\n      swap2\n      swap1\n      pop\n      jump\t// out\n        /* \"#utility.yul\":4170:4290   */\n    tag_71:\n        /* \"#utility.yul\":4242:4265   */\n      tag_133\n        /* \"#utility.yul\":4259:4264   */\n      dup2\n        /* \"#utility.yul\":4242:4265   */\n      tag_70\n      jump\t// in\n    tag_133:\n        /* \"#utility.yul\":4235:4240   */\n      dup2\n        /* \"#utility.yul\":4232:4266   */\n      eq\n        /* \"#utility.yul\":4222:4284   */\n      tag_134\n      jumpi\n        /* \"#utility.yul\":4280:4281   */\n      0x00\n        /* \"#utility.yul\":4277:4278   */\n      0x00\n        /* \"#utility.yul\":4270:4282   */\n      revert\n        /* \"#utility.yul\":4222:4284   */\n    tag_134:\n        /* \"#utility.yul\":4170:4290   */\n      pop\n      jump\t// out\n        /* \"#utility.yul\":4296:4437   */\n    tag_72:\n        /* \"#utility.yul\":4352:4357   */\n      0x00\n        /* \"#utility.yul\":4383:4389   */\n      dup2\n        /* \"#utility.yul\":4377:4390   */\n      mload\n        /* \"#utility.yul\":4368:4390   */\n      swap1\n      pop\n        /* \"#utility.yul\":4399:4431   */\n      tag_136\n        /* \"#utility.yul\":4425:4430   */\n      dup2\n        /* \"#utility.yul\":4399:4431   */\n      tag_71\n      jump\t// in\n    tag_136:\n        /* \"#utility.yul\":4296:4437   */\n      swap3\n      swap2\n      pop\n      pop\n      jump\t// out\n        /* \"#utility.yul\":4443:5414   */\n    tag_45:\n        /* \"#utility.yul\":4546:4552   */\n      0x00\n        /* \"#utility.yul\":4554:4560   */\n      0x00\n        /* \"#utility.yul\":4562:4568   */\n      0x00\n        /* \"#utility.yul\":4570:4576   */\n      0x00\n        /* \"#utility.yul\":4578:4584   */\n      0x00\n        /* \"#utility.yul\":4627:4630   */\n      0xa0\n        /* \"#utility.yul\":4615:4624   */\n      dup7\n        /* \"#utility.yul\":4606:4613   */\n      dup9\n        /* \"#utility.yul\":4602:4625   */\n      sub\n        /* \"#utility.yul\":4598:4631   */\n      slt\n        /* \"#utility.yul\":4595:4715   */\n      iszero\n      tag_138\n      jumpi\n        /* \"#utility.yul\":4634:4713   */\n      tag_139\n      tag_56\n      jump\t// in\n    tag_139:\n        /* \"#utility.yul\":4595:4715   */\n    tag_138:\n        /* \"#utility.yul\":4754:4755   */\n      0x00\n        /* \"#utility.yul\":4779:4842   */\n      tag_140\n        /* \"#utility.yul\":4834:4841   */\n      dup9\n        /* \"#utility.yul\":4825:4831   */\n      dup3\n        /* \"#utility.yul\":4814:4823   */\n      dup10\n        /* \"#utility.yul\":4810:4832   */\n      add\n        /* \"#utility.yul\":4779:4842   */\n      tag_69\n      jump\t// in\n    tag_140:\n        /* \"#utility.yul\":4769:4842   */\n      swap6\n      pop\n        /* \"#utility.yul\":4725:4852   */\n      pop\n        /* \"#utility.yul\":4891:4893   */\n      0x20\n        /* \"#utility.yul\":4917:4980   */\n      tag_141\n        /* \"#utility.yul\":4972:4979   */\n      dup9\n        /* \"#utility.yul\":4963:4969   */\n      dup3\n        /* \"#utility.yul\":4952:4961   */\n      dup10\n        /* \"#utility.yul\":4948:4970   */\n      add\n        /* \"#utility.yul\":4917:4980   */\n      tag_72\n      jump\t// in\n    tag_141:\n        /* \"#utility.yul\":4907:4980   */\n      swap5\n      pop\n        /* \"#utility.yul\":4862:4990   */\n      pop\n        /* \"#utility.yul\":5029:5031   */\n      0x40\n        /* \"#utility.yul\":5055:5119   */\n      tag_142\n        /* \"#utility.yul\":5111:5118   */\n      dup9\n        /* \"#utility.yul\":5102:5108   */\n      dup3\n        /* \"#utility.yul\":5091:5100   */\n      dup10\n        /* \"#utility.yul\":5087:5109   */\n      add\n        /* \"#utility.yul\":5055:5119   */\n      tag_64\n      jump\t// in\n    tag_142:\n        /* \"#utility.yul\":5045:5119   */\n      swap4\n      pop\n        /* \"#utility.yul\":5000:5129   */\n      pop\n        /* \"#utility.yul\":5168:5170   */\n      0x60\n        /* \"#utility.yul\":5194:5258   */\n      tag_143\n        /* \"#utility.yul\":5250:5257   */\n      dup9\n        /* \"#utility.yul\":5241:5247   */\n      dup3\n        /* \"#utility.yul\":5230:5239   */\n      dup10\n        /* \"#utility.yul\":5226:5248   */\n      add\n        /* \"#utility.yul\":5194:5258   */\n      tag_64\n      jump\t// in\n    tag_143:\n        /* \"#utility.yul\":5184:5258   */\n      swap3\n      pop\n        /* \"#utility.yul\":5139:5268   */\n      pop\n        /* \"#utility.yul\":5307:5310   */\n      0x80\n        /* \"#utility.yul\":5334:5397   */\n      tag_144\n        /* \"#utility.yul\":5389:5396   */\n      dup9\n        /* \"#utility.yul\":5380:5386   */\n      dup3\n        /* \"#utility.yul\":5369:5378   */\n      dup10\n        /* \"#utility.yul\":5365:5387   */\n      add\n        /* \"#utility.yul\":5334:5397   */\n      tag_69\n      jump\t// in\n    tag_144:\n        /* \"#utility.yul\":5324:5397   */\n      swap2\n      pop\n        /* \"#utility.yul\":5278:5407   */\n      pop\n        /* \"#utility.yul\":4443:5414   */\n      swap3\n      swap6\n      pop\n      swap3\n      swap6\n      swap1\n      swap4\n      pop\n      jump\t// out\n        /* \"#utility.yul\":5420:5589   */\n    tag_73:\n        /* \"#utility.yul\":5504:5515   */\n      0x00\n        /* \"#utility.yul\":5538:5544   */\n      dup3\n        /* \"#utility.yul\":5533:5536   */\n      dup3\n        /* \"#utility.yul\":5526:5545   */\n      mstore\n        /* \"#utility.yul\":5578:5582   */\n      0x20\n        /* \"#utility.yul\":5573:5576   */\n      dup3\n        /* \"#utility.yul\":5569:5583   */\n      add\n        /* \"#utility.yul\":5554:5583   */\n      swap1\n      pop\n        /* \"#utility.yul\":5420:5589   */\n      swap3\n      swap2\n      pop\n      pop\n      jump\t// out\n        /* \"#utility.yul\":5595:5772   */\n    tag_74:\n        /* \"#utility.yul\":5735:5764   */\n      0x596f75206e65656420746f207370656e64206d6f726520455448210000000000\n        /* \"#utility.yul\":5731:5732   */\n      0x00\n        /* \"#utility.yul\":5723:5729   */\n      dup3\n        /* \"#utility.yul\":5719:5733   */\n      add\n        /* \"#utility.yul\":5712:5765   */\n      mstore\n        /* \"#utility.yul\":5595:5772   */\n      pop\n      jump\t// out\n        /* \"#utility.yul\":5778:6144   */\n    tag_75:\n        /* \"#utility.yul\":5920:5923   */\n      0x00\n        /* \"#utility.yul\":5941:6008   */\n      tag_148\n        /* \"#utility.yul\":6005:6007   */\n      0x1b\n        /* \"#utility.yul\":6000:6003   */\n      dup4\n        /* \"#utility.yul\":5941:6008   */\n      tag_73\n      jump\t// in\n    tag_148:\n        /* \"#utility.yul\":5934:6008   */\n      swap2\n      pop\n        /* \"#utility.yul\":6017:6110   */\n      tag_149\n        /* \"#utility.yul\":6106:6109   */\n      dup3\n        /* \"#utility.yul\":6017:6110   */\n      tag_74\n      jump\t// in\n    tag_149:\n        /* \"#utility.yul\":6135:6137   */\n      0x20\n        /* \"#utility.yul\":6130:6133   */\n      dup3\n        /* \"#utility.yul\":6126:6138   */\n      add\n        /* \"#utility.yul\":6119:6138   */\n      swap1\n      pop\n        /* \"#utility.yul\":5778:6144   */\n      swap2\n      swap1\n      pop\n      jump\t// out\n        /* \"#utility.yul\":6150:6569   */\n    tag_50:\n        /* \"#utility.yul\":6316:6320   */\n      0x00\n        /* \"#utility.yul\":6354:6356   */\n      0x20\n        /* \"#utility.yul\":6343:6352   */\n      dup3\n        /* \"#utility.yul\":6339:6357   */\n      add\n        /* \"#utility.yul\":6331:6357   */\n      swap1\n      pop\n        /* \"#utility.yul\":6403:6412   */\n      dup2\n        /* \"#utility.yul\":6397:6401   */\n      dup2\n        /* \"#utility.yul\":6393:6413   */\n      sub\n        /* \"#utility.yul\":6389:6390   */\n      0x00\n        /* \"#utility.yul\":6378:6387   */\n      dup4\n        /* \"#utility.yul\":6374:6391   */\n      add\n        /* \"#utility.yul\":6367:6414   */\n      mstore\n        /* \"#utility.yul\":6431:6562   */\n      tag_151\n        /* \"#utility.yul\":6557:6561   */\n      dup2\n        /* \"#utility.yul\":6431:6562   */\n      tag_75\n      jump\t// in\n    tag_151:\n        /* \"#utility.yul\":6423:6562   */\n      swap1\n      pop\n        /* \"#utility.yul\":6150:6569   */\n      swap2\n      swap1\n      pop\n      jump\t// out\n        /* \"#utility.yul\":6575:6766   */\n    tag_52:\n        /* \"#utility.yul\":6615:6618   */\n      0x00\n        /* \"#utility.yul\":6634:6654   */\n      tag_153\n        /* \"#utility.yul\":6652:6653   */\n      dup3\n        /* \"#utility.yul\":6634:6654   */\n      tag_53\n      jump\t// in\n    tag_153:\n        /* \"#utility.yul\":6629:6654   */\n      swap2\n      pop\n        /* \"#utility.yul\":6668:6688   */\n      tag_154\n        /* \"#utility.yul\":6686:6687   */\n      dup4\n        /* \"#utility.yul\":6668:6688   */\n      tag_53\n      jump\t// in\n    tag_154:\n        /* \"#utility.yul\":6663:6688   */\n      swap3\n      pop\n        /* \"#utility.yul\":6711:6712   */\n      dup3\n        /* \"#utility.yul\":6708:6709   */\n      dup3\n        /* \"#utility.yul\":6704:6713   */\n      add\n        /* \"#utility.yul\":6697:6713   */\n      swap1\n      pop\n        /* \"#utility.yul\":6732:6735   */\n      dup1\n        /* \"#utility.yul\":6729:6730   */\n      dup3\n        /* \"#utility.yul\":6726:6736   */\n      gt\n        /* \"#utility.yul\":6723:6759   */\n      iszero\n      tag_155\n      jumpi\n        /* \"#utility.yul\":6739:6757   */\n      tag_156\n      tag_65\n      jump\t// in\n    tag_156:\n        /* \"#utility.yul\":6723:6759   */\n    tag_155:\n        /* \"#utility.yul\":6575:6766   */\n      swap3\n      swap2\n      pop\n      pop\n      jump\t// out\n\n    auxdata: 0xa26469706673582212206e2c73685b50f4a034029b87165ecf7a88eebfcd285775931120081d29d0aee164736f6c634300081e0033\n}\n",
				"bytecode": {
					"linkReferences": {},
					"object": "6080604052348015600e575f5ffd5b5061071b8061001c5f395ff3fe608060405260043610610049575f3560e01c80630d8e6e2c1461004d5780633e47d6f3146100775780636e5b6b28146100b357806398d5fdca146100ef578063b60d428814610119575b5f5ffd5b348015610058575f5ffd5b50610061610123565b60405161006e9190610350565b60405180910390f35b348015610082575f5ffd5b5061009d600480360381019061009891906103c7565b6101af565b6040516100aa9190610350565b60405180910390f35b3480156100be575f5ffd5b506100d960048036038101906100d4919061041c565b6101c3565b6040516100e69190610350565b60405180910390f35b3480156100fa575f5ffd5b506101036101f7565b6040516101109190610350565b60405180910390f35b61012161028c565b005b5f5f73694aa1769357215de4fac081bf1f309adc32530690508073ffffffffffffffffffffffffffffffffffffffff166354fd4d506040518163ffffffff1660e01b8152600401602060405180830381865afa158015610185573d5f5f3e3d5ffd5b505050506040513d601f19601f820116820180604052508101906101a9919061045b565b91505090565b5f602052805f5260405f205f915090505481565b5f5f6101cd6101f7565b90505f6305f5e10084836101e191906104b3565b6101eb9190610521565b90508092505050919050565b5f5f73694aa1769357215de4fac081bf1f309adc32530690505f8173ffffffffffffffffffffffffffffffffffffffff1663feaf968c6040518163ffffffff1660e01b815260040160a060405180830381865afa15801561025a573d5f5f3e3d5ffd5b505050506040513d601f19601f8201168201806040525081019061027e91906105c3565b505050915050809250505090565b5f674563918244f400009050806102a2346101c3565b10156102e3576040517f08c379a00000000000000000000000000000000000000000000000000000000081526004016102da90610694565b60405180910390fd5b345f5f3373ffffffffffffffffffffffffffffffffffffffff1673ffffffffffffffffffffffffffffffffffffffff1681526020019081526020015f205f82825461032e91906106b2565b9250508190555050565b5f819050919050565b61034a81610338565b82525050565b5f6020820190506103635f830184610341565b92915050565b5f5ffd5b5f73ffffffffffffffffffffffffffffffffffffffff82169050919050565b5f6103968261036d565b9050919050565b6103a68161038c565b81146103b0575f5ffd5b50565b5f813590506103c18161039d565b92915050565b5f602082840312156103dc576103db610369565b5b5f6103e9848285016103b3565b91505092915050565b6103fb81610338565b8114610405575f5ffd5b50565b5f81359050610416816103f2565b92915050565b5f6020828403121561043157610430610369565b5b5f61043e84828501610408565b91505092915050565b5f81519050610455816103f2565b92915050565b5f602082840312156104705761046f610369565b5b5f61047d84828501610447565b91505092915050565b7f4e487b71000000000000000000000000000000000000000000000000000000005f52601160045260245ffd5b5f6104bd82610338565b91506104c883610338565b92508282026104d681610338565b915082820484148315176104ed576104ec610486565b5b5092915050565b7f4e487b71000000000000000000000000000000000000000000000000000000005f52601260045260245ffd5b5f61052b82610338565b915061053683610338565b925082610546576105456104f4565b5b828204905092915050565b5f69ffffffffffffffffffff82169050919050565b61056f81610551565b8114610579575f5ffd5b50565b5f8151905061058a81610566565b92915050565b5f819050919050565b6105a281610590565b81146105ac575f5ffd5b50565b5f815190506105bd81610599565b92915050565b5f5f5f5f5f60a086880312156105dc576105db610369565b5b5f6105e98882890161057c565b95505060206105fa888289016105af565b945050604061060b88828901610447565b935050606061061c88828901610447565b925050608061062d8882890161057c565b9150509295509295909350565b5f82825260208201905092915050565b7f596f75206e65656420746f207370656e64206d6f7265204554482100000000005f82015250565b5f61067e601b8361063a565b91506106898261064a565b602082019050919050565b5f6020820190508181035f8301526106ab81610672565b9050919050565b5f6106bc82610338565b91506106c783610338565b92508282019050808211156106df576106de610486565b5b9291505056fea26469706673582212206e2c73685b50f4a034029b87165ecf7a88eebfcd285775931120081d29d0aee164736f6c634300081e0033",
					"opcodes": "PUSH1 0x80 PUSH1 0x40 MSTORE CALLVALUE DUP1 ISZERO PUSH1 0xE JUMPI PUSH0 PUSH0 REVERT JUMPDEST POP PUSH2 0x71B DUP1 PUSH2 0x1C PUSH0 CODECOPY PUSH0 RETURN INVALID PUSH1 0x80 PUSH1 0x40 MSTORE PUSH1 0x4 CALLDATASIZE LT PUSH2 0x49 JUMPI PUSH0 CALLDATALOAD PUSH1 0xE0 SHR DUP1 PUSH4 0xD8E6E2C EQ PUSH2 0x4D JUMPI DUP1 PUSH4 0x3E47D6F3 EQ PUSH2 0x77 JUMPI DUP1 PUSH4 0x6E5B6B28 EQ PUSH2 0xB3 JUMPI DUP1 PUSH4 0x98D5FDCA EQ PUSH2 0xEF JUMPI DUP1 PUSH4 0xB60D4288 EQ PUSH2 0x119 JUMPI JUMPDEST PUSH0 PUSH0 REVERT JUMPDEST CALLVALUE DUP1 ISZERO PUSH2 0x58 JUMPI PUSH0 PUSH0 REVERT JUMPDEST POP PUSH2 0x61 PUSH2 0x123 JUMP JUMPDEST PUSH1 0x40 MLOAD PUSH2 0x6E SWAP2 SWAP1 PUSH2 0x350 JUMP JUMPDEST PUSH1 0x40 MLOAD DUP1 SWAP2 SUB SWAP1 RETURN JUMPDEST CALLVALUE DUP1 ISZERO PUSH2 0x82 JUMPI PUSH0 PUSH0 REVERT JUMPDEST POP PUSH2 0x9D PUSH1 0x4 DUP1 CALLDATASIZE SUB DUP2 ADD SWAP1 PUSH2 0x98 SWAP2 SWAP1 PUSH2 0x3C7 JUMP JUMPDEST PUSH2 0x1AF JUMP JUMPDEST PUSH1 0x40 MLOAD PUSH2 0xAA SWAP2 SWAP1 PUSH2 0x350 JUMP JUMPDEST PUSH1 0x40 MLOAD DUP1 SWAP2 SUB SWAP1 RETURN JUMPDEST CALLVALUE DUP1 ISZERO PUSH2 0xBE JUMPI PUSH0 PUSH0 REVERT JUMPDEST POP PUSH2 0xD9 PUSH1 0x4 DUP1 CALLDATASIZE SUB DUP2 ADD SWAP1 PUSH2 0xD4 SWAP2 SWAP1 PUSH2 0x41C JUMP JUMPDEST PUSH2 0x1C3 JUMP JUMPDEST PUSH1 0x40 MLOAD PUSH2 0xE6 SWAP2 SWAP1 PUSH2 0x350 JUMP JUMPDEST PUSH1 0x40 MLOAD DUP1 SWAP2 SUB SWAP1 RETURN JUMPDEST CALLVALUE DUP1 ISZERO PUSH2 0xFA JUMPI PUSH0 PUSH0 REVERT JUMPDEST POP PUSH2 0x103 PUSH2 0x1F7 JUMP JUMPDEST PUSH1 0x40 MLOAD PUSH2 0x110 SWAP2 SWAP1 PUSH2 0x350 JUMP JUMPDEST PUSH1 0x40 MLOAD DUP1 SWAP2 SUB SWAP1 RETURN JUMPDEST PUSH2 0x121 PUSH2 0x28C JUMP JUMPDEST STOP JUMPDEST PUSH0 PUSH0 PUSH20 0x694AA1769357215DE4FAC081BF1F309ADC325306 SWAP1 POP DUP1 PUSH20 0xFFFFFFFFFFFFFFFFFFFFFFFFFFFFFFFFFFFFFFFF AND PUSH4 0x54FD4D50 PUSH1 0x40 MLOAD DUP2 PUSH4 0xFFFFFFFF AND PUSH1 0xE0 SHL DUP2 MSTORE PUSH1 0x4 ADD PUSH1 0x20 PUSH1 0x40 MLOAD DUP1 DUP4 SUB DUP2 DUP7 GAS STATICCALL ISZERO DUP1 ISZERO PUSH2 0x185 JUMPI RETURNDATASIZE PUSH0 PUSH0 RETURNDATACOPY RETURNDATASIZE PUSH0 REVERT JUMPDEST POP POP POP POP PUSH1 0x40 MLOAD RETURNDATASIZE PUSH1 0x1F NOT PUSH1 0x1F DUP3 ADD AND DUP3 ADD DUP1 PUSH1 0x40 MSTORE POP DUP2 ADD SWAP1 PUSH2 0x1A9 SWAP2 SWAP1 PUSH2 0x45B JUMP JUMPDEST SWAP2 POP POP SWAP1 JUMP JUMPDEST PUSH0 PUSH1 0x20 MSTORE DUP1 PUSH0 MSTORE PUSH1 0x40 PUSH0 KECCAK256 PUSH0 SWAP2 POP SWAP1 POP SLOAD DUP2 JUMP JUMPDEST PUSH0 PUSH0 PUSH2 0x1CD PUSH2 0x1F7 JUMP JUMPDEST SWAP1 POP PUSH0 PUSH4 0x5F5E100 DUP5 DUP4 PUSH2 0x1E1 SWAP2 SWAP1 PUSH2 0x4B3 JUMP JUMPDEST PUSH2 0x1EB SWAP2 SWAP1 PUSH2 0x521 JUMP JUMPDEST SWAP1 POP DUP1 SWAP3 POP POP POP SWAP2 SWAP1 POP JUMP JUMPDEST PUSH0 PUSH0 PUSH20 0x694AA1769357215DE4FAC081BF1F309ADC325306 SWAP1 POP PUSH0 DUP2 PUSH20 0xFFFFFFFFFFFFFFFFFFFFFFFFFFFFFFFFFFFFFFFF AND PUSH4 0xFEAF968C PUSH1 0x40 MLOAD DUP2 PUSH4 0xFFFFFFFF AND PUSH1 0xE0 SHL DUP2 MSTORE PUSH1 0x4 ADD PUSH1 0xA0 PUSH1 0x40 MLOAD DUP1 DUP4 SUB DUP2 DUP7 GAS STATICCALL ISZERO DUP1 ISZERO PUSH2 0x25A JUMPI RETURNDATASIZE PUSH0 PUSH0 RETURNDATACOPY RETURNDATASIZE PUSH0 REVERT JUMPDEST POP POP POP POP PUSH1 0x40 MLOAD RETURNDATASIZE PUSH1 0x1F NOT PUSH1 0x1F DUP3 ADD AND DUP3 ADD DUP1 PUSH1 0x40 MSTORE POP DUP2 ADD SWAP1 PUSH2 0x27E SWAP2 SWAP1 PUSH2 0x5C3 JUMP JUMPDEST POP POP POP SWAP2 POP POP DUP1 SWAP3 POP POP POP SWAP1 JUMP JUMPDEST PUSH0 PUSH8 0x4563918244F40000 SWAP1 POP DUP1 PUSH2 0x2A2 CALLVALUE PUSH2 0x1C3 JUMP JUMPDEST LT ISZERO PUSH2 0x2E3 JUMPI PUSH1 0x40 MLOAD PUSH32 0x8C379A000000000000000000000000000000000000000000000000000000000 DUP2 MSTORE PUSH1 0x4 ADD PUSH2 0x2DA SWAP1 PUSH2 0x694 JUMP JUMPDEST PUSH1 0x40 MLOAD DUP1 SWAP2 SUB SWAP1 REVERT JUMPDEST CALLVALUE PUSH0 PUSH0 CALLER PUSH20 0xFFFFFFFFFFFFFFFFFFFFFFFFFFFFFFFFFFFFFFFF AND PUSH20 0xFFFFFFFFFFFFFFFFFFFFFFFFFFFFFFFFFFFFFFFF AND DUP2 MSTORE PUSH1 0x20 ADD SWAP1 DUP2 MSTORE PUSH1 0x20 ADD PUSH0 KECCAK256 PUSH0 DUP3 DUP3 SLOAD PUSH2 0x32E SWAP2 SWAP1 PUSH2 0x6B2 JUMP JUMPDEST SWAP3 POP POP DUP2 SWAP1 SSTORE POP POP JUMP JUMPDEST PUSH0 DUP2 SWAP1 POP SWAP2 SWAP1 POP JUMP JUMPDEST PUSH2 0x34A DUP2 PUSH2 0x338 JUMP JUMPDEST DUP3 MSTORE POP POP JUMP JUMPDEST PUSH0 PUSH1 0x20 DUP3 ADD SWAP1 POP PUSH2 0x363 PUSH0 DUP4 ADD DUP5 PUSH2 0x341 JUMP JUMPDEST SWAP3 SWAP2 POP POP JUMP JUMPDEST PUSH0 PUSH0 REVERT JUMPDEST PUSH0 PUSH20 0xFFFFFFFFFFFFFFFFFFFFFFFFFFFFFFFFFFFFFFFF DUP3 AND SWAP1 POP SWAP2 SWAP1 POP JUMP JUMPDEST PUSH0 PUSH2 0x396 DUP3 PUSH2 0x36D JUMP JUMPDEST SWAP1 POP SWAP2 SWAP1 POP JUMP JUMPDEST PUSH2 0x3A6 DUP2 PUSH2 0x38C JUMP JUMPDEST DUP2 EQ PUSH2 0x3B0 JUMPI PUSH0 PUSH0 REVERT JUMPDEST POP JUMP JUMPDEST PUSH0 DUP2 CALLDATALOAD SWAP1 POP PUSH2 0x3C1 DUP2 PUSH2 0x39D JUMP JUMPDEST SWAP3 SWAP2 POP POP JUMP JUMPDEST PUSH0 PUSH1 0x20 DUP3 DUP5 SUB SLT ISZERO PUSH2 0x3DC JUMPI PUSH2 0x3DB PUSH2 0x369 JUMP JUMPDEST JUMPDEST PUSH0 PUSH2 0x3E9 DUP5 DUP3 DUP6 ADD PUSH2 0x3B3 JUMP JUMPDEST SWAP2 POP POP SWAP3 SWAP2 POP POP JUMP JUMPDEST PUSH2 0x3FB DUP2 PUSH2 0x338 JUMP JUMPDEST DUP2 EQ PUSH2 0x405 JUMPI PUSH0 PUSH0 REVERT JUMPDEST POP JUMP JUMPDEST PUSH0 DUP2 CALLDATALOAD SWAP1 POP PUSH2 0x416 DUP2 PUSH2 0x3F2 JUMP JUMPDEST SWAP3 SWAP2 POP POP JUMP JUMPDEST PUSH0 PUSH1 0x20 DUP3 DUP5 SUB SLT ISZERO PUSH2 0x431 JUMPI PUSH2 0x430 PUSH2 0x369 JUMP JUMPDEST JUMPDEST PUSH0 PUSH2 0x43E DUP5 DUP3 DUP6 ADD PUSH2 0x408 JUMP JUMPDEST SWAP2 POP POP SWAP3 SWAP2 POP POP JUMP JUMPDEST PUSH0 DUP2 MLOAD SWAP1 POP PUSH2 0x455 DUP2 PUSH2 0x3F2 JUMP JUMPDEST SWAP3 SWAP2 POP POP JUMP JUMPDEST PUSH0 PUSH1 0x20 DUP3 DUP5 SUB SLT ISZERO PUSH2 0x470 JUMPI PUSH2 0x46F PUSH2 0x369 JUMP JUMPDEST JUMPDEST PUSH0 PUSH2 0x47D DUP5 DUP3 DUP6 ADD PUSH2 0x447 JUMP JUMPDEST SWAP2 POP POP SWAP3 SWAP2 POP POP JUMP JUMPDEST PUSH32 0x4E487B7100000000000000000000000000000000000000000000000000000000 PUSH0 MSTORE PUSH1 0x11 PUSH1 0x4 MSTORE PUSH1 0x24 PUSH0 REVERT JUMPDEST PUSH0 PUSH2 0x4BD DUP3 PUSH2 0x338 JUMP JUMPDEST SWAP2 POP PUSH2 0x4C8 DUP4 PUSH2 0x338 JUMP JUMPDEST SWAP3 POP DUP3 DUP3 MUL PUSH2 0x4D6 DUP2 PUSH2 0x338 JUMP JUMPDEST SWAP2 POP DUP3 DUP3 DIV DUP5 EQ DUP4 ISZERO OR PUSH2 0x4ED JUMPI PUSH2 0x4EC PUSH2 0x486 JUMP JUMPDEST JUMPDEST POP SWAP3 SWAP2 POP POP JUMP JUMPDEST PUSH32 0x4E487B7100000000000000000000000000000000000000000000000000000000 PUSH0 MSTORE PUSH1 0x12 PUSH1 0x4 MSTORE PUSH1 0x24 PUSH0 REVERT JUMPDEST PUSH0 PUSH2 0x52B DUP3 PUSH2 0x338 JUMP JUMPDEST SWAP2 POP PUSH2 0x536 DUP4 PUSH2 0x338 JUMP JUMPDEST SWAP3 POP DUP3 PUSH2 0x546 JUMPI PUSH2 0x545 PUSH2 0x4F4 JUMP JUMPDEST JUMPDEST DUP3 DUP3 DIV SWAP1 POP SWAP3 SWAP2 POP POP JUMP JUMPDEST PUSH0 PUSH10 0xFFFFFFFFFFFFFFFFFFFF DUP3 AND SWAP1 POP SWAP2 SWAP1 POP JUMP JUMPDEST PUSH2 0x56F DUP2 PUSH2 0x551 JUMP JUMPDEST DUP2 EQ PUSH2 0x579 JUMPI PUSH0 PUSH0 REVERT JUMPDEST POP JUMP JUMPDEST PUSH0 DUP2 MLOAD SWAP1 POP PUSH2 0x58A DUP2 PUSH2 0x566 JUMP JUMPDEST SWAP3 SWAP2 POP POP JUMP JUMPDEST PUSH0 DUP2 SWAP1 POP SWAP2 SWAP1 POP JUMP JUMPDEST PUSH2 0x5A2 DUP2 PUSH2 0x590 JUMP JUMPDEST DUP2 EQ PUSH2 0x5AC JUMPI PUSH0 PUSH0 REVERT JUMPDEST POP JUMP JUMPDEST PUSH0 DUP2 MLOAD SWAP1 POP PUSH2 0x5BD DUP2 PUSH2 0x599 JUMP JUMPDEST SWAP3 SWAP2 POP POP JUMP JUMPDEST PUSH0 PUSH0 PUSH0 PUSH0 PUSH0 PUSH1 0xA0 DUP7 DUP9 SUB SLT ISZERO PUSH2 0x5DC JUMPI PUSH2 0x5DB PUSH2 0x369 JUMP JUMPDEST JUMPDEST PUSH0 PUSH2 0x5E9 DUP9 DUP3 DUP10 ADD PUSH2 0x57C JUMP JUMPDEST SWAP6 POP POP PUSH1 0x20 PUSH2 0x5FA DUP9 DUP3 DUP10 ADD PUSH2 0x5AF JUMP JUMPDEST SWAP5 POP POP PUSH1 0x40 PUSH2 0x60B DUP9 DUP3 DUP10 ADD PUSH2 0x447 JUMP JUMPDEST SWAP4 POP POP PUSH1 0x60 PUSH2 0x61C DUP9 DUP3 DUP10 ADD PUSH2 0x447 JUMP JUMPDEST SWAP3 POP POP PUSH1 0x80 PUSH2 0x62D DUP9 DUP3 DUP10 ADD PUSH2 0x57C JUMP JUMPDEST SWAP2 POP POP SWAP3 SWAP6 POP SWAP3 SWAP6 SWAP1 SWAP4 POP JUMP JUMPDEST PUSH0 DUP3 DUP3 MSTORE PUSH1 0x20 DUP3 ADD SWAP1 POP SWAP3 SWAP2 POP POP JUMP JUMPDEST PUSH32 0x596F75206E65656420746F207370656E64206D6F726520455448210000000000 PUSH0 DUP3 ADD MSTORE POP JUMP JUMPDEST PUSH0 PUSH2 0x67E PUSH1 0x1B DUP4 PUSH2 0x63A JUMP JUMPDEST SWAP2 POP PUSH2 0x689 DUP3 PUSH2 0x64A JUMP JUMPDEST PUSH1 0x20 DUP3 ADD SWAP1 POP SWAP2 SWAP1 POP JUMP JUMPDEST PUSH0 PUSH1 0x20 DUP3 ADD SWAP1 POP DUP2 DUP2 SUB PUSH0 DUP4 ADD MSTORE PUSH2 0x6AB DUP2 PUSH2 0x672 JUMP JUMPDEST SWAP1 POP SWAP2 SWAP1 POP JUMP JUMPDEST PUSH0 PUSH2 0x6BC DUP3 PUSH2 0x338 JUMP JUMPDEST SWAP2 POP PUSH2 0x6C7 DUP4 PUSH2 0x338 JUMP JUMPDEST SWAP3 POP DUP3 DUP3 ADD SWAP1 POP DUP1 DUP3 GT ISZERO PUSH2 0x6DF JUMPI PUSH2 0x6DE PUSH2 0x486 JUMP JUMPDEST JUMPDEST SWAP3 SWAP2 POP POP JUMP INVALID LOG2 PUSH5 0x6970667358 0x22 SLT KECCAK256 PUSH15 0x2C73685B50F4A034029B87165ECF7A DUP9 RETURNCONTRACT 0xBF 0xCD 0x28 JUMPI PUSH22 0x931120081D29D0AEE164736F6C634300081E00330000 "
				},
				"gasEstimates": {
					"creation": {
						"codeDepositCost": "363800",
						"executionCost": "397",
						"totalCost": "364197"
					},
					"external": {
						"addressToAmountFunded(address)": "2801",
						"fund()": "infinite",
						"getConversionRate(uint256)": "infinite",
						"getPrice()": "infinite",
						"getVersion()": "infinite"
					}
				},
				"methodIdentifiers": {
					"addressToAmountFunded(address)": "3e47d6f3",
					"fund()": "b60d4288",
					"getConversionRate(uint256)": "6e5b6b28",
					"getPrice()": "98d5fdca",
					"getVersion()": "0d8e6e2c"
				}
			},
			"storageLayout": {
				"storage": [
					{
						"astId": 52,
						"contract": "contracts/FundMe.sol:FundMe",
						"label": "addressToAmountFunded",
						"offset": 0,
						"slot": "0",
						"type": "t_mapping(t_address,t_uint256)"
					}
				],
				"types": {
					"t_address": {
						"encoding": "inplace",
						"label": "address",
						"numberOfBytes": "20"
					},
					"t_mapping(t_address,t_uint256)": {
						"encoding": "mapping",
						"key": "t_address",
						"label": "mapping(address => uint256)",
						"numberOfBytes": "32",
						"value": "t_uint256"
					},
					"t_uint256": {
						"encoding": "inplace",
						"label": "uint256",
						"numberOfBytes": "32"
					}
				}
			},
			"userdoc": {
				"kind": "user",
				"methods": {},
				"version": 1
			}
		}
	}
}